{
  "abi": [
    {
      "inputs": [
        {
          "internalType": "uint256",
          "name": "key",
          "type": "uint256"
        }
      ],
      "name": "getAddr",
      "outputs": [
        {
          "internalType": "address",
          "name": "",
          "type": "address"
        }
      ],
      "stateMutability": "view",
      "type": "function"
    },
    {
      "inputs": [],
      "name": "getPadding",
      "outputs": [
        {
          "internalType": "address",
          "name": "",
          "type": "address"
        }
      ],
      "stateMutability": "view",
      "type": "function"
    },
    {
      "inputs": [
        {
          "internalType": "uint256",
          "name": "key",
          "type": "uint256"
        },
        {
          "internalType": "address",
          "name": "addr_",
          "type": "address"
        }
      ],
      "name": "setAddr",
      "outputs": [],
      "stateMutability": "nonpayable",
      "type": "function"
    },
    {
      "inputs": [
        {
          "internalType": "address",
          "name": "padding",
          "type": "address"
        }
      ],
      "name": "setPadding",
      "outputs": [],
      "stateMutability": "nonpayable",
      "type": "function"
    }
  ],
  "bytecode": {
    "object": "0x608060405234801561001057600080fd5b50610194806100206000396000f3fe608060405234801561001057600080fd5b506004361061004c5760003560e01c80638495623f14610051578063c465f5f11461007a578063d81f84b7146100ac578063eba36dbd146100d5575b600080fd5b6000546001600160a01b03165b6040516001600160a01b03909116815260200160405180910390f35b6100aa61008836600461012d565b600080546001600160a01b0319166001600160a01b0392909216919091179055565b005b61005e6100ba36600461014f565b6000908152600160205260409020546001600160a01b031690565b6100aa6100e3366004610168565b60009182526001602052604090912080546001600160a01b0319166001600160a01b03909216919091179055565b80356001600160a01b038116811461012857600080fd5b919050565b60006020828403121561013f57600080fd5b61014882610111565b9392505050565b60006020828403121561016157600080fd5b5035919050565b6000806040838503121561017b57600080fd5b8235915061018b60208401610111565b9050925092905056",
    "linkReferences": {}
  },
  "methodIdentifiers": {
    "getAddr(uint256)": "d81f84b7",
    "getPadding()": "8495623f",
    "setAddr(uint256,address)": "eba36dbd",
    "setPadding(address)": "c465f5f1"
  },
  "id": 0
}