{
  "abi": [
    {
      "inputs": [],
      "name": "CannotDecrement",
      "type": "error"
    },
    {
      "inputs": [],
      "name": "decrement",
      "outputs": [],
      "stateMutability": "nonpayable",
      "type": "function"
    },
    {
      "inputs": [],
      "name": "increment",
      "outputs": [],
      "stateMutability": "nonpayable",
      "type": "function"
    },
    {
      "inputs": [],
      "name": "number",
      "outputs": [
        {
          "internalType": "uint256",
          "name": "",
          "type": "uint256"
        }
      ],
      "stateMutability": "view",
      "type": "function"
    },
    {
      "inputs": [
        {
          "internalType": "uint256",
          "name": "newNumber",
          "type": "uint256"
        }
      ],
      "name": "setNumber",
      "outputs": [],
      "stateMutability": "nonpayable",
      "type": "function"
    }
  ],
  "bytecode": {
    "object": "0x608060405234801561001057600080fd5b50610138806100206000396000f3fe608060405234801561001057600080fd5b506004361061004c5760003560e01c80632baeceb7146100515780633fb5c1cb1461005b5780638381f58a1461006e578063d09de08a14610089575b600080fd5b610059610091565b005b6100596100693660046100d9565b600055565b61007760005481565b60405190815260200160405180910390f35b6100596100ca565b6000546000036100b45760405163222b508f60e11b815260040160405180910390fd5b6000805490806100c383610108565b9190505550565b6000805490806100c38361011f565b6000602082840312156100eb57600080fd5b5035919050565b634e487b7160e01b600052601160045260246000fd5b600081610117576101176100f2565b506000190190565b600060018201610131576101316100f2565b506001019056",
    "linkReferences": {}
  },
  "methodIdentifiers": {
    "decrement()": "2baeceb7",
    "increment()": "d09de08a",
    "number()": "8381f58a",
    "setNumber(uint256)": "3fb5c1cb"
  },
  "id": 19
}