{
  "abi": [
    {
      "inputs": [],
      "name": "get_current",
      "outputs": [
        {
          "components": [
            {
              "internalType": "address",
              "name": "addr",
              "type": "address"
            },
            {
              "internalType": "bool",
              "name": "isEnabled",
              "type": "bool"
            }
          ],
          "internalType": "struct BytecodeExample.StructTwo",
          "name": "",
          "type": "tuple"
        }
      ],
      "stateMutability": "view",
      "type": "function"
    },
    {
      "inputs": [
        {
          "internalType": "uint256",
          "name": "",
          "type": "uint256"
        }
      ],
      "name": "history",
      "outputs": [
        {
          "internalType": "address",
          "name": "addr",
          "type": "address"
        },
        {
          "internalType": "bool",
          "name": "isEnabled",
          "type": "bool"
        }
      ],
      "stateMutability": "view",
      "type": "function"
    },
    {
      "inputs": [
        {
          "internalType": "address",
          "name": "addr",
          "type": "address"
        },
        {
          "internalType": "bool",
          "name": "isEnabled",
          "type": "bool"
        }
      ],
      "name": "new_current",
      "outputs": [],
      "stateMutability": "nonpayable",
      "type": "function"
    },
    {
      "inputs": [
        {
          "internalType": "uint64",
          "name": "one",
          "type": "uint64"
        },
        {
          "internalType": "uint128",
          "name": "two",
          "type": "uint128"
        }
      ],
      "name": "set_data",
      "outputs": [],
      "stateMutability": "nonpayable",
      "type": "function"
    }
  ],
  "bytecode": {
    "object": "0x608060405234801561001057600080fd5b506102db806100206000396000f3fe608060405234801561001057600080fd5b506004361061004c5760003560e01c80631b78187d1461005157806374878662146100aa57806377ef0222146100f5578063a7a38f0b14610194575b600080fd5b6040805180820182526000808252602091820152815180830183526001546001600160a01b038116808352600160a01b90910460ff16151591830191825283519081529051151591810191909152015b60405180910390f35b6100f36100b83660046101fb565b600080546001600160801b0390921668010000000000000000026001600160c01b031990921667ffffffffffffffff90931692909217179055565b005b6100f361010336600461024d565b600280546001818101835560009290925281547f405787fa12a823e0f2b7631cc41b3ba8828b3321ca811111fa75cd3aa3bb5ace90910180546001600160a01b031981166001600160a01b039384169081178355845460ff600160a01b9182900416151581026001600160a81b03199384169092179190911790925583549415159091029316931692909217179055565b6101a76101a236600461028c565b6101c6565b604080516001600160a01b0390931683529015156020830152016100a1565b600281815481106101d657600080fd5b6000918252602090912001546001600160a01b0381169150600160a01b900460ff1682565b6000806040838503121561020e57600080fd5b823567ffffffffffffffff8116811461022657600080fd5b915060208301356001600160801b038116811461024257600080fd5b809150509250929050565b6000806040838503121561026057600080fd5b82356001600160a01b038116811461027757600080fd5b91506020830135801515811461024257600080fd5b60006020828403121561029e57600080fd5b503591905056fea26469706673582212207e31853dcb00b2dc55692d5f3ac5badce0163a15f68777de5100a54291a7171f64736f6c63430008130033",
    "linkReferences": {}
  },
  "methodIdentifiers": {
    "get_current()": "1b78187d",
    "history(uint256)": "a7a38f0b",
    "new_current(address,bool)": "77ef0222",
    "set_data(uint64,uint128)": "74878662"
  },
  "id": 13
}