{
  "abi": [
    {
      "inputs": [
        {
          "internalType": "uint128",
          "name": "key",
          "type": "uint128"
        },
        {
          "internalType": "uint256",
          "name": "value",
          "type": "uint256"
        }
      ],
      "name": "add",
      "outputs": [],
      "stateMutability": "nonpayable",
      "type": "function"
    },
    {
      "inputs": [
        {
          "internalType": "uint64",
          "name": "number",
          "type": "uint64"
        }
      ],
      "name": "append",
      "outputs": [],
      "stateMutability": "nonpayable",
      "type": "function"
    },
    {
      "inputs": [
        {
          "internalType": "uint256",
          "name": "index",
          "type": "uint256"
        }
      ],
      "name": "read",
      "outputs": [
        {
          "internalType": "uint64",
          "name": "",
          "type": "uint64"
        }
      ],
      "stateMutability": "view",
      "type": "function"
    }
  ],
  "bytecode": {
    "object": "0x608060405234801561001057600080fd5b5061022d806100206000396000f3fe608060405234801561001057600080fd5b50600436106100415760003560e01c80633b076df414610046578063871d7573146100b9578063ed2e5a97146100e9575b600080fd5b6100b761005436600461015f565b6001805480820182556000919091527fb10e2d527612073b26eecdfd717e6a320cf44b4afac2b0732d9fcbe2b7fa0cf66004820401805460039092166008026101000a67ffffffffffffffff818102199093169390921691909102919091179055565b005b6100b76100c7366004610190565b6001600160801b03909116600090815260208181526040808320909152902055565b6100fc6100f73660046101c8565b610119565b60405167ffffffffffffffff909116815260200160405180910390f35b60006001828154811061012e5761012e6101e1565b90600052602060002090600491828204019190066008029054906101000a900467ffffffffffffffff169050919050565b60006020828403121561017157600080fd5b813567ffffffffffffffff8116811461018957600080fd5b9392505050565b600080604083850312156101a357600080fd5b82356001600160801b03811681146101ba57600080fd5b946020939093013593505050565b6000602082840312156101da57600080fd5b5035919050565b634e487b7160e01b600052603260045260246000fdfea26469706673582212206e123127fa4e1b84a05360ff2312642e7eca667c5e4bb91600d5fadf7744889064736f6c63430008130033",
    "linkReferences": {}
  },
  "methodIdentifiers": {
    "add(uint128,uint256)": "871d7573",
    "append(uint64)": "3b076df4",
    "read(uint256)": "ed2e5a97"
  },
  "id": 19
}