{
  "abi": [
    {
      "inputs": [
        {
          "internalType": "uint64",
          "name": "one",
          "type": "uint64"
        },
        {
          "internalType": "uint128",
          "name": "two",
          "type": "uint128"
        }
      ],
      "name": "set_data",
      "outputs": [],
      "stateMutability": "nonpayable",
      "type": "function"
    }
  ],
  "bytecode": {
    "object": "0x608060405234801561001057600080fd5b5060fa8061001f6000396000f3fe6080604052348015600f57600080fd5b506004361060285760003560e01c80637487866214602d575b600080fd5b607360383660046075565b600080546001600160801b0390921668010000000000000000026001600160c01b031990921667ffffffffffffffff90931692909217179055565b005b60008060408385031215608757600080fd5b823567ffffffffffffffff81168114609e57600080fd5b915060208301356001600160801b038116811460b957600080fd5b80915050925092905056fea26469706673582212201cf953c228d34054f8000f54f4343aa616b0f913e8b736e93bc9783f73a23b9364736f6c63430008150033",
    "linkReferences": {}
  },
  "methodIdentifiers": {
    "set_data(uint64,uint128)": "74878662"
  },
  "id": 19
}