{
  "abi": [
    {
      "inputs": [],
      "name": "DOMAIN_SEPARATOR",
      "outputs": [
        {
          "internalType": "bytes32",
          "name": "",
          "type": "bytes32"
        }
      ],
      "stateMutability": "view",
      "type": "function"
    },
    {
      "inputs": [],
      "name": "MINIMUM_LIQUIDITY",
      "outputs": [
        {
          "internalType": "uint256",
          "name": "",
          "type": "uint256"
        }
      ],
      "stateMutability": "view",
      "type": "function"
    },
    {
      "inputs": [],
      "name": "PERMIT_TYPEHASH",
      "outputs": [
        {
          "internalType": "bytes32",
          "name": "",
          "type": "bytes32"
        }
      ],
      "stateMutability": "view",
      "type": "function"
    },
    {
      "inputs": [
        {
          "internalType": "address",
          "name": "",
          "type": "address"
        },
        {
          "internalType": "address",
          "name": "",
          "type": "address"
        }
      ],
      "name": "allowance",
      "outputs": [
        {
          "internalType": "uint256",
          "name": "",
          "type": "uint256"
        }
      ],
      "stateMutability": "view",
      "type": "function"
    },
    {
      "inputs": [
        {
          "internalType": "address",
          "name": "spender",
          "type": "address"
        },
        {
          "internalType": "uint256",
          "name": "value",
          "type": "uint256"
        }
      ],
      "name": "approve",
      "outputs": [
        {
          "internalType": "bool",
          "name": "",
          "type": "bool"
        }
      ],
      "stateMutability": "nonpayable",
      "type": "function"
    },
    {
      "inputs": [
        {
          "internalType": "address",
          "name": "",
          "type": "address"
        }
      ],
      "name": "balanceOf",
      "outputs": [
        {
          "internalType": "uint256",
          "name": "",
          "type": "uint256"
        }
      ],
      "stateMutability": "view",
      "type": "function"
    },
    {
      "inputs": [
        {
          "internalType": "address",
          "name": "to",
          "type": "address"
        }
      ],
      "name": "burn",
      "outputs": [
        {
          "internalType": "uint256",
          "name": "amount0",
          "type": "uint256"
        },
        {
          "internalType": "uint256",
          "name": "amount1",
          "type": "uint256"
        }
      ],
      "stateMutability": "nonpayable",
      "type": "function"
    },
    {
      "inputs": [
        {
          "internalType": "address",
          "name": "to",
          "type": "address"
        }
      ],
      "name": "mint",
      "outputs": [
        {
          "internalType": "uint256",
          "name": "liquidity",
          "type": "uint256"
        }
      ],
      "stateMutability": "nonpayable",
      "type": "function"
    },
    {
      "inputs": [
        {
          "internalType": "address",
          "name": "",
          "type": "address"
        }
      ],
      "name": "nonces",
      "outputs": [
        {
          "internalType": "uint256",
          "name": "",
          "type": "uint256"
        }
      ],
      "stateMutability": "view",
      "type": "function"
    },
    {
      "inputs": [
        {
          "internalType": "address",
          "name": "owner",
          "type": "address"
        },
        {
          "internalType": "address",
          "name": "spender",
          "type": "address"
        },
        {
          "internalType": "uint256",
          "name": "value",
          "type": "uint256"
        },
        {
          "internalType": "uint256",
          "name": "deadline",
          "type": "uint256"
        },
        {
          "internalType": "uint8",
          "name": "v",
          "type": "uint8"
        },
        {
          "internalType": "bytes32",
          "name": "r",
          "type": "bytes32"
        },
        {
          "internalType": "bytes32",
          "name": "s",
          "type": "bytes32"
        }
      ],
      "name": "permit",
      "outputs": [],
      "stateMutability": "nonpayable",
      "type": "function"
    },
    {
      "inputs": [],
      "name": "totalSupply",
      "outputs": [
        {
          "internalType": "uint256",
          "name": "",
          "type": "uint256"
        }
      ],
      "stateMutability": "view",
      "type": "function"
    },
    {
      "inputs": [
        {
          "internalType": "address",
          "name": "to",
          "type": "address"
        },
        {
          "internalType": "uint256",
          "name": "value",
          "type": "uint256"
        }
      ],
      "name": "transfer",
      "outputs": [
        {
          "internalType": "bool",
          "name": "",
          "type": "bool"
        }
      ],
      "stateMutability": "nonpayable",
      "type": "function"
    },
    {
      "inputs": [
        {
          "internalType": "address",
          "name": "from",
          "type": "address"
        },
        {
          "internalType": "address",
          "name": "to",
          "type": "address"
        },
        {
          "internalType": "uint256",
          "name": "value",
          "type": "uint256"
        }
      ],
      "name": "transferFrom",
      "outputs": [
        {
          "internalType": "bool",
          "name": "",
          "type": "bool"
        }
      ],
      "stateMutability": "nonpayable",
      "type": "function"
    }
  ],
  "bytecode": {
    "object": "0x608060405234801561001057600080fd5b50610705806100206000396000f3fe608060405234801561001057600080fd5b50600436106100cf5760003560e01c806370a082311161008c578063a9059cbb11610066578063a9059cbb14610225578063ba9a7a5614610251578063d505accf14610259578063dd62ed3e146102ac576100cf565b806370a082311461019a5780637ecebe00146101c057806389afcb44146101e6576100cf565b8063095ea7b3146100d457806318160ddd1461011457806323b872dd1461012e57806330adf81f146101645780633644e5151461016c5780636a62784214610174575b600080fd5b610100600480360360408110156100ea57600080fd5b506001600160a01b0381351690602001356102da565b604080519115158252519081900360200190f35b61011c6102f1565b60408051918252519081900360200190f35b6101006004803603606081101561014457600080fd5b506001600160a01b038135811691602081013590911690604001356102f7565b61011c61038b565b61011c6103af565b61011c6004803603602081101561018a57600080fd5b50356001600160a01b03166103b5565b61011c600480360360208110156101b057600080fd5b50356001600160a01b03166103fc565b61011c600480360360208110156101d657600080fd5b50356001600160a01b031661040e565b61020c600480360360208110156101fc57600080fd5b50356001600160a01b0316610420565b6040805192835260208301919091528051918290030190f35b6101006004803603604081101561023b57600080fd5b506001600160a01b038135169060200135610445565b61011c610452565b6102aa600480360360e081101561026f57600080fd5b506001600160a01b03813581169160208101359091169060408101359060608101359060ff6080820135169060a08101359060c00135610458565b005b61011c600480360360408110156102c257600080fd5b506001600160a01b03813581169160200135166104d1565b60006102e73384846104ee565b5060015b92915050565b60005481565b6001600160a01b038316600090815260026020908152604080832033845290915281205460001914610376576001600160a01b0384166000908152600260209081526040808320338452909152902054610351908361051a565b6001600160a01b03851660009081526002602090815260408083203384529091529020555b61038184848461056a565b5060019392505050565b7f6e71edae12b1b97f4d1f60370fef10105fa2faae0126114a169c64845d6126c981565b60035481565b60008060013080836103c7828261051a565b905060006103e5836dffffffffffffffffffffffffffff871661051a565b90506103f188886105dd565b505050505050919050565b60016020526000908152604090205481565b60046020526000908152604090205481565b30600081815260016020526040812054909182919061043f908261062f565b50915091565b60006102e733848461056a565b6103e881565b604080516000808252602080830180855282905260ff87168385015260608301869052608083018590529251909260019260a080820193601f1981019281900390910190855afa1580156104b0573d6000803e3d6000fd5b5050506020604051035190506104c78888886104ee565b5050505050505050565b600260209081526000928352604080842090915290825290205481565b6001600160a01b0392831660009081526002602090815260408083209490951682529290925291902055565b808203828111156102eb576040805162461bcd60e51b815260206004820152601560248201527464732d6d6174682d7375622d756e646572666c6f7760581b604482015290519081900360640190fd5b6001600160a01b03831660009081526001602052604090205461058d908261051a565b6001600160a01b0380851660009081526001602052604080822093909355908416815220546105bc9082610680565b6001600160a01b039092166000908152600160205260409020919091555050565b6000546105ea9082610680565b60009081556001600160a01b03831681526001602052604090205461060f9082610680565b6001600160a01b0390921660009081526001602052604090209190915550565b6001600160a01b038216600090815260016020526040902054610652908261051a565b6001600160a01b03831660009081526001602052604081209190915554610679908261051a565b6000555050565b808201828110156102eb576040805162461bcd60e51b815260206004820152601460248201527364732d6d6174682d6164642d6f766572666c6f7760601b604482015290519081900360640190fdfea2646970667358221220209cb83c6911cadc7a1b94ca3fd3a271ac0b623d4d4276c6eaa2fb895208e1c064736f6c634300060c0033",
    "linkReferences": {}
  },
  "methodIdentifiers": {
    "DOMAIN_SEPARATOR()": "3644e515",
    "MINIMUM_LIQUIDITY()": "ba9a7a56",
    "PERMIT_TYPEHASH()": "30adf81f",
    "allowance(address,address)": "dd62ed3e",
    "approve(address,uint256)": "095ea7b3",
    "balanceOf(address)": "70a08231",
    "burn(address)": "89afcb44",
    "mint(address)": "6a627842",
    "nonces(address)": "7ecebe00",
    "permit(address,address,uint256,uint256,uint8,bytes32,bytes32)": "d505accf",
    "totalSupply()": "18160ddd",
    "transfer(address,uint256)": "a9059cbb",
    "transferFrom(address,address,uint256)": "23b872dd"
  },
  "id": 0
}